{
  "contractName": "StackOperations",
  "abi": [
    {
      "anonymous": false,
      "inputs": [
        {
          "indexed": false,
          "internalType": "uint256",
          "name": "a",
          "type": "uint256"
        },
        {
          "indexed": false,
          "internalType": "uint256",
          "name": "b",
          "type": "uint256"
        },
        {
          "indexed": false,
          "internalType": "uint256",
          "name": "result",
          "type": "uint256"
        }
      ],
      "name": "Added",
      "type": "event"
    },
    {
      "anonymous": false,
      "inputs": [
        {
          "indexed": false,
          "internalType": "uint256",
          "name": "value",
          "type": "uint256"
        }
      ],
      "name": "Popped",
      "type": "event"
    },
    {
      "anonymous": false,
      "inputs": [
        {
          "indexed": false,
          "internalType": "uint256",
          "name": "value",
          "type": "uint256"
        }
      ],
      "name": "Pushed",
      "type": "event"
    },
    {
      "anonymous": false,
      "inputs": [
        {
          "indexed": false,
          "internalType": "uint256",
          "name": "a",
          "type": "uint256"
        },
        {
          "indexed": false,
          "internalType": "uint256",
          "name": "b",
          "type": "uint256"
        },
        {
          "indexed": false,
          "internalType": "uint256",
          "name": "result",
          "type": "uint256"
        }
      ],
      "name": "Subtracted",
      "type": "event"
    },
    {
      "inputs": [
        {
          "internalType": "uint256",
          "name": "value",
          "type": "uint256"
        }
      ],
      "name": "push",
      "outputs": [],
      "stateMutability": "nonpayable",
      "type": "function"
    },
    {
      "inputs": [],
      "name": "pop",
      "outputs": [
        {
          "internalType": "uint256",
          "name": "",
          "type": "uint256"
        }
      ],
      "stateMutability": "nonpayable",
      "type": "function"
    },
    {
      "inputs": [],
      "name": "add",
      "outputs": [],
      "stateMutability": "nonpayable",
      "type": "function"
    },
    {
      "inputs": [],
      "name": "sub",
      "outputs": [],
      "stateMutability": "nonpayable",
      "type": "function"
    },
    {
      "inputs": [],
      "name": "getStack",
      "outputs": [
        {
          "internalType": "uint256[]",
          "name": "",
          "type": "uint256[]"
        }
      ],
      "stateMutability": "view",
      "type": "function"
    }
  ],
  "bytecode": "0x608060405234801561000f575f80fd5b506107568061001d5f395ff3fe608060405234801561000f575f80fd5b5060043610610055575f3560e01c80634b2a5002146100595780634f2be91f14610077578063959ac48414610081578063a4ece52c1461009d578063c54124be146100bb575b5f80fd5b6100616100c5565b60405161006e919061047d565b60405180910390f35b61007f61011a565b005b61009b600480360381019061009691906104cb565b6101d0565b005b6100a561022f565b6040516100b29190610505565b60405180910390f35b6100c3610307565b005b60605f80548060200260200160405190810160405280929190818152602001828054801561011057602002820191905f5260205f20905b8154815260200190600101908083116100fc575b5050505050905090565b60025f805490501015610162576040517f08c379a000000000000000000000000000000000000000000000000000000000815260040161015990610578565b60405180910390fd5b5f61016b61022f565b90505f61017661022f565b90505f818361018591906105c3565b9050610190816101d0565b7fdacd6915a3133d6443fa6889ce5516423d4c55eb78865bff55807a282e1a00408383836040516101c3939291906105f6565b60405180910390a1505050565b5f81908060018154018082558091505060019003905f5260205f20015f90919091909150557f596330851ac25e6ec8c92072a44a9e57b03eb6a0a2388a73770a0ac191524f98816040516102249190610505565b60405180910390a150565b5f805f8054905011610276576040517f08c379a000000000000000000000000000000000000000000000000000000000815260040161026d90610675565b60405180910390fd5b5f8060015f805490506102899190610693565b8154811061029a576102996106c6565b5b905f5260205f20015490505f8054806102b6576102b56106f3565b5b600190038181905f5260205f20015f905590557fb426e6a2f9f462930f4e0b75db70f45d24ce86b097036da40ac1aca07848cd1e816040516102f89190610505565b60405180910390a18091505090565b60025f80549050101561034f576040517f08c379a000000000000000000000000000000000000000000000000000000000815260040161034690610578565b60405180910390fd5b5f61035861022f565b90505f61036361022f565b90505f81836103729190610693565b905061037d816101d0565b7f1e13faa901d9fb24596bfc51e20e20abb535f0ad7541d284e9e4dc6e893771d78383836040516103b0939291906105f6565b60405180910390a1505050565b5f81519050919050565b5f82825260208201905092915050565b5f819050602082019050919050565b5f819050919050565b6103f8816103e6565b82525050565b5f61040983836103ef565b60208301905092915050565b5f602082019050919050565b5f61042b826103bd565b61043581856103c7565b9350610440836103d7565b805f5b8381101561047057815161045788826103fe565b975061046283610415565b925050600181019050610443565b5085935050505092915050565b5f6020820190508181035f8301526104958184610421565b905092915050565b5f80fd5b6104aa816103e6565b81146104b4575f80fd5b50565b5f813590506104c5816104a1565b92915050565b5f602082840312156104e0576104df61049d565b5b5f6104ed848285016104b7565b91505092915050565b6104ff816103e6565b82525050565b5f6020820190506105185f8301846104f6565b92915050565b5f82825260208201905092915050565b7f4e6f7420656e6f7567682076616c756573206f6e20737461636b0000000000005f82015250565b5f610562601a8361051e565b915061056d8261052e565b602082019050919050565b5f6020820190508181035f83015261058f81610556565b9050919050565b7f4e487b71000000000000000000000000000000000000000000000000000000005f52601160045260245ffd5b5f6105cd826103e6565b91506105d8836103e6565b92508282019050808211156105f0576105ef610596565b5b92915050565b5f6060820190506106095f8301866104f6565b61061660208301856104f6565b61062360408301846104f6565b949350505050565b7f537461636b20756e646572666c6f7700000000000000000000000000000000005f82015250565b5f61065f600f8361051e565b915061066a8261062b565b602082019050919050565b5f6020820190508181035f83015261068c81610653565b9050919050565b5f61069d826103e6565b91506106a8836103e6565b92508282039050818111156106c0576106bf610596565b5b92915050565b7f4e487b71000000000000000000000000000000000000000000000000000000005f52603260045260245ffd5b7f4e487b71000000000000000000000000000000000000000000000000000000005f52603160045260245ffdfea26469706673582212200bf055afdfe184aa8862c19c6cbaae46981764456809a02ebfbc52d8bd50502264736f6c63430008150033",
  "immutableReferences": {},
  "source": "// SPDX-License-Identifier: MIT\r\npragma solidity ^0.8.0;\r\n\r\ncontract StackOperations {\r\n    uint256[] private stack;\r\n\r\n    event Pushed(uint256 value);\r\n    event Popped(uint256 value);\r\n    event Added(uint256 a, uint256 b, uint256 result);\r\n    event Subtracted(uint256 a, uint256 b, uint256 result);\r\n\r\n    // PUSH :   \r\n    function push(uint256 value) public {\r\n        stack.push(value);\r\n        emit Pushed(value);\r\n    }\r\n\r\n    // POP :    \r\n    function pop() public returns (uint256) {\r\n        require(stack.length > 0, \"Stack underflow\");\r\n        uint256 value = stack[stack.length - 1];\r\n        stack.pop();\r\n        emit Popped(value);\r\n        return value;\r\n    }\r\n\r\n    // ADD :         \r\n    function add() public {\r\n        require(stack.length >= 2, \"Not enough values on stack\");\r\n        uint256 a = pop();\r\n        uint256 b = pop();\r\n        uint256 result = a + b;\r\n        push(result);\r\n        emit Added(a, b, result);\r\n    }\r\n\r\n    // SUB :         \r\n    function sub() public {\r\n        require(stack.length >= 2, \"Not enough values on stack\");\r\n        uint256 a = pop();\r\n        uint256 b = pop();\r\n        uint256 result = a - b;\r\n        push(result);\r\n        emit Subtracted(a, b, result);\r\n    }\r\n\r\n    //    \r\n    function getStack() public view returns (uint256[] memory) {\r\n        return stack;\r\n    }\r\n}\r\n",
  "sourcePath": "C:\\Users\\stark\\Documents\\GitHub\\ethereum\\EVM-practice\\contracts\\StackOperations.sol",
  "compiler": {
    "name": "solc",
    "version": "0.8.21+commit.d9974bed.Emscripten.clang"
  },
  "schemaVersion": "3.4.16",
  "updatedAt": "2024-12-31T05:24:05.614Z",
  "devdoc": {
    "kind": "dev",
    "methods": {},
    "version": 1
  },
  "userdoc": {
    "kind": "user",
    "methods": {},
    "version": 1
  }
}